:1000000000300020010800004508000045080000FD
:1000100000000000000000000000000000000000E0
:100020000000000000000000000000004508000083
:100030000000000000000000450800004508000026
:10004000450800004508000045080000450800007C
:10005000450800004508000045080000450800006C
:10006000450800004508000045080000450800005C
:100070004D080000550800005D080000450800001C
:10008000450800004508000045080000450800003C
:10009000450800004508000045080000450800002C
:1000A000450800004508000045080000450800001C
:1000B000450800004508000045080000450800000C
:10040000FFFFFFFFFFFFFFFFFFFFFFFFFEFFFFFFFD
:1008000072B600F03DFA62B609490A4A0A4B9B1AD1
:1008100003DD043BC858D050FBDC0849084A521A93
:1008200003DD00208850043AFCDA00F01BF80000D9
:10083000480E000000F0FF1F00F0FF1F00F0FF1F38
:1008400000F0FF1F004800474508000080B500AFDA
:10085000BD4680BD80B500AFBD4680BD80B500AF50
:10086000BD4680BD80B584B000AF72B61423FF339F
:10087000181C012100F054F880235B00181C002193
:1008800000F022F80F4BFB603B1C0B3300221A7068
:1008900062B600237B6080235B00181C00F030F8F8
:1008A000031C012B06D11423FF33181C002100F078
:1008B0004DF8F0E71423FF33181C012100F046F82F
:1008C000E9E7C046C0E1E40080B582B000AF0A1C91
:1008D000BB1D011C19807B1D1A70BB1D1B88181CB9
:1008E0000021002200F046F8BB1D1A887B1D1B78F2
:1008F000101C191C00F01CF9BD4602B080BDC0469A
:1009000080B582B000AF021CBB1D1A80BB1D1B88C6
:10091000181C00F0E3F8031C181CBD4602B080BD93
:1009200080B582B000AF0A1CBB1D011C19807B1D65
:100930001A70BB1D1A887B1D1B78101C01211A1C04
:1009400000F018F8BD4602B080BDC04680B582B048
:1009500000AF0A1CBB1D011C19807B1D1A70BB1D3A
:100960001A887B1D1B78101C191C00F077F8BD46F7
:1009700002B080BD80B586B000AFBB1D18807B1D66
:1009800019703B1D1A70BB1D19883A1C0F323B1C95
:100990000E33081C111C1A1C00F058F93B1C0F33B5
:1009A0001B781A1C2A4B9200D3587B613B1C0F33D7
:1009B0001B781A1C274B9200D3583B613B1C0E330B
:1009C0001B781A1C3B1C0E331B78191C7B69890091
:1009D000C958214B19407B699200D1503B1C0E3302
:1009E0001B781A1C3B1C0E331B78191C7B69890071
:1009F000CB588021490019437B699200D1507B1D5F
:100A00001B78012B14D13B695A693B1C0E331B78B0
:100A10000121081C9840031C1A433B695A61BB1D05
:100A20001A883B1D1B78101C191C00F017F80CE0ED
:100A30003B695B693A1C0E3212780121081C904018
:100A4000021CD2431A403B695A61BD4606B080BDC4
:100A5000200E0000340E0000FFF8FFFF80B584B0C8
:100A600000AF0A1CBB1D011C19807B1D1A70BB1D29
:100A700019883A1C0B323B1C0A33081C111C1A1C27
:100A800000F0E4F83B1C0B331B781A1C124B92004D
:100A9000D358FB607B1D1B78012B0CD1FB681A68B7
:100AA0003B1C0A331B780121081C9840031C1A4385
:100AB000FB681A600CE0FB681B683A1C0A3212786B
:100AC0000121081C9040021CD2431A40FB681A60A6
:100AD000BD4604B080BDC046340E000080B584B071
:100AE00000AF021CBB1D1A80BB1D19883A1C0B32BB
:100AF0003B1C0A33081C111C1A1C00F0A7F83B1CF5
:100B00000B331B781A1C094B9200D358FB60FB680F
:100B10001A693B1C0A331B78DA40012313405A1E22
:100B20009341DBB2181CBD4604B080BD340E0000FA
:100B300080B584B000AF0A1CBB1D011C19807B1D51
:100B40001A70BB1D19883A1C0B323B1C0A33081C57
:100B5000111C1A1C00F07AF83B1C0B331B781A1C72
:100B6000384B9200D358FB603B1C0A331B781A1C8D
:100B70003B1C0A331B78191CFB688900C958324B8F
:100B80001940FB689200D1503B1C0A331B781A1C99
:100B90003B1C0A331B78191CFB688900CB58802149
:100BA00049001943FB689200D1503B1C0A331B7863
:100BB0001A1C3B1C0A331B78191CFB688900CB5894
:100BC0004021181C8843011CFB689200D1503B1C3B
:100BD0000A331B781A1C3B1C0A331B78191CFB6850
:100BE0008900CB5802211943FB689200D1507B1D2C
:100BF0001B78012B10D13B1C0A331B781A1C3B1CA1
:100C00000A331B78191CFB688900CB580121194352
:100C1000FB689200D15011E03B1C0A331B781A1C70
:100C20003B1C0A331B78191CFB688900CB58012137
:100C3000181C8843011CFB689200D150BD4604B0CB
:100C400080BDC046200E0000FFF8FFFF80B584B0D5
:100C500000AFB9607A603B1C0E33021C1A803B1C4B
:100C60000E331B881B0A9BB2DAB2BB681A703B1C9E
:100C70000E331B88DAB27B681A70BD4604B080BDA3
:100C800080B582B000AF00237B60FB1C00221A708D
:100C90005B4A88235B010021D1505A4B14225A70C1
:100CA000584B98221A7000237B600AE0554B9B79C1
:100CB000DBB21A1C0223134000D006E07B6801332C
:100CC0007B607A68504B9A42F0D900237B600AE03F
:100CD0004C4B9B79DBB21A1C1023134000D106E069
:100CE0007B6801337B607A68484B9A42F0D90023D5
:100CF0007B600CE0434B9B79DBB21A1C0C23134046
:100D00009B08022B00D106E07B6801337B607A6888
:100D10003E4B9A42EED93B4B3A4A5279D2B220210D
:100D20000A43D2B25A71374B364A1279D2B20121F4
:100D30000A43D2B21A71334B5B79DAB2FB1C1A70D8
:100D4000FB1CFA1C12781F218A431A70FB1CFA1C28
:100D5000127840210A431A702A4BFA1C12785A71F1
:100D600000237B600AE0274B9B79DBB21A1C20230F
:100D7000134000D006E07B6801337B607A68234B28
:100D80009A42F0D900237B600AE01E4B9B79DBB2CC
:100D90001A1C4023134000D006E07B6801337B60BF
:100DA0007A681B4B9A42F0D9154A1A4B1A49D1500E
:100DB000144B144A1278D1B23F220A40D2B21A70B0
:100DC00000237B600CE00F4B9B79DBB21A1C0C23D9
:100DD00013409B08032B00D106E07B6801337B6046
:100DE0007A680A4B9A42EED9054A05490B4BCB5813
:100DF000F82189011943094BD150BD4602B080BD8D
:100E000000700440004006401F4E0000CF07000065
:100E10009F0F000044100000000001103810000077
:100E20000090044000A0044000B0044000C0044012
:100E300000D0044000F00F4040F00F4080F00F4021
:080E4000C0F00F4000F10F406B
:0400000300000801F0
:00000001FF
